/*Address inputs only		0=LOW						
	"Data is in HEX, four bytes (LSB,MSB)"	1=HIGH						
	ZZZZZZZZZZZZZZZZ=Tri-state				G-WRITE = Global Write						
	XXXXXXXXXXXXXXXX= Don't care			B-WRITE = Byte Write						
	YYYY=unknown				BG-WRITE = BURST GLOBAL WRITE						
						BB-WRITE = BURST BYTE WRITE						

*/						
//		    				        CE3#  BW2# ADV/LD#
//	     					 CEN# CE2 WE#   
//    Add             IN                  OUT 	    CE1#    BW1#  
0000000000000000_XXXXXXXXXXXXXXXX_ZZZZZZZZZZZZZZZZ_0_0_1_0_0_0_0_0 
0000000000000001_XXXXXXXXXXXXXXXX_ZZZZZZZZZZZZZZZZ_0_0_1_0_0_0_0_0
0000000000000010_0000000000000000_ZZZZZZZZZZZZZZZZ_0_0_1_0_0_0_0_0
0000000000000011_0000000000000001_ZZZZZZZZZZZZZZZZ_0_0_1_0_0_0_0_0
0000000000000100_0000000000000010_ZZZZZZZZZZZZZZZZ_0_0_1_0_0_0_0_0
0000000000000101_0000000000000011_ZZZZZZZZZZZZZZZZ_0_0_1_0_0_0_0_0
0000000000000110_0000000000000100_ZZZZZZZZZZZZZZZZ_0_0_1_0_0_0_0_0
0000000000000111_0000000000000101_ZZZZZZZZZZZZZZZZ_0_0_1_0_0_0_0_0
0000000000001000_0000000000000110_ZZZZZZZZZZZZZZZZ_0_0_1_0_0_0_0_0
0000000000001001_0000000000000111_ZZZZZZZZZZZZZZZZ_0_0_1_0_0_0_0_0
0000000000001010_0000000000001000_ZZZZZZZZZZZZZZZZ_0_0_1_0_0_0_0_0
0000000000001011_0000000000001001_ZZZZZZZZZZZZZZZZ_0_0_1_0_0_0_0_0
0000000000001100_0000000000001010_ZZZZZZZZZZZZZZZZ_0_0_1_0_0_0_0_0
0000000000001101_0000000000001011_ZZZZZZZZZZZZZZZZ_0_0_1_0_0_0_0_0
0000000000001110_0000000000001100_ZZZZZZZZZZZZZZZZ_0_0_1_0_0_0_0_0
0000000000001111_0000000000001101_ZZZZZZZZZZZZZZZZ_0_0_1_0_0_0_0_0
0000000000000000_0000000000001110_ZZZZZZZZZZZZZZZZ_0_0_1_0_1_X_X_0
0000000000000001_0000000000001111_ZZZZZZZZZZZZZZZZ_0_0_1_0_1_X_X_0
0000000000000010_xxxxxxxxxxxxxxxx_0000000000000000_0_0_1_0_1_X_X_0 
0000000000000011_xxxxxxxxxxxxxxxx_0000000000000001_0_0_1_0_1_X_X_0
0000000000000100_xxxxxxxxxxxxxxxx_0000000000000010_0_0_1_0_1_X_X_0
0000000000000101_xxxxxxxxxxxxxxxx_0000000000000011_0_0_1_0_1_X_X_0
0000000000000110_xxxxxxxxxxxxxxxx_0000000000000100_0_0_1_0_1_X_X_0
0000000000000111_xxxxxxxxxxxxxxxx_0000000000000101_0_0_1_0_1_X_X_0
0000000000001000_xxxxxxxxxxxxxxxx_0000000000000110_0_0_1_0_1_X_X_0
0000000000001001_xxxxxxxxxxxxxxxx_0000000000000111_0_0_1_0_1_X_X_0
0000000000001010_xxxxxxxxxxxxxxxx_0000000000001000_0_0_1_0_1_X_X_0
0000000000001011_xxxxxxxxxxxxxxxx_0000000000001001_0_0_1_0_1_X_X_0
0000000000001100_xxxxxxxxxxxxxxxx_0000000000001010_0_0_1_0_1_X_X_0
0000000000001101_xxxxxxxxxxxxxxxx_0000000000001011_0_0_1_0_1_X_X_0
0000000000001110_xxxxxxxxxxxxxxxx_0000000000001100_0_0_1_0_1_X_X_0
0000000000001111_xxxxxxxxxxxxxxxx_0000000000001101_0_0_1_0_1_X_X_0
0000000000000000_xxxxxxxxxxxxxxxx_0000000000001110_0_0_1_0_0_0_0_0
0000000000001111_xxxxxxxxxxxxxxxx_0000000000001111_0_0_1_0_1_X_X_0
0000000000000000_0001000100010001_ZZZZZZZZZZZZZZZZ_0_0_1_0_0_1_0_0
0000000000000000_xxxxxxxxxxxxxxxx_0000000000001111_0_0_1_0_1_X_X_0
0000000000001100_XXXX1010XXXX1010_ZZZZZZZZZZZZZZZZ_0_0_1_0_0_0_0_0
0000000000001011_xxxxxxxxxxxxxxxx_0001101000011010_0_0_1_0_1_X_X_0
0000000000000111_0010001000100010_ZZZZZZZZZZZZZZZZ_0_0_1_0_0_0_1_0
0000000000000111_xxxxxxxxxxxxxxxx_0000000000001011_0_0_1_0_1_X_X_0
0000000000001000_001100110011XXXX_ZZZZZZZZZZZZZZZZ_0_0_1_0_1_X_X_0
0000000000001001_xxxxxxxxxxxxxxxx_0011001100110111_0_0_1_0_0_0_0_0
0000000000001001_xxxxxxxxxxxxxxxx_0000000000001000_0_0_1_0_0_0_1_0
0000000000001001_0100010001000100_ZZZZZZZZZZZZZZZZ_0_0_1_0_0_1_1_0 
0000000000001010_XXXX01010101XXXX_ZZZZZZZZZZZZZZZZ_0_0_1_0_0_1_1_0 
0000000000000000_xxxxxxxxxxxxxxxx_0100010101010100_0_0_1_0_0_0_0_0
0000000000000001_xxxxxxxxxxxxxxxx_0000000000001010_0_0_1_0_0_0_0_0
0000000000001001_0110011001100110_ZZZZZZZZZZZZZZZZ_0_0_1_0_1_X_X_0
0000000000000000_0111011101110111_ZZZZZZZZZZZZZZZZ_0_0_1_0_1_X_X_0
0000000000000101_xxxxxxxxxxxxxxxx_0100010101010100_0_0_1_0_0_0_1_0
0000000000000100_xxxxxxxxxxxxxxxx_0110011001100110_0_0_1_0_0_1_0_0
0000000000000001_1000XXXX1000XXXX_ZZZZZZZZZZZZZZZZ_0_0_1_0_1_X_X_0
0000000000000010_XXXX1001XXXX1001_ZZZZZZZZZZZZZZZZ_0_0_1_0_1_X_X_0 
0000000000001100_xxxxxxxxxxxxxxxx_0111011101110111_0_0_1_0_0_1_1_0
0000000000001101_xxxxxxxxxxxxxxxx_0000000000000010_0_0_1_0_0_0_0_0
0000000000001010_00010001XXXXXXXX_ZZZZZZZZZZZZZZZZ_0_0_1_0_1_X_X_0
0000000000001011_0000111100001111_ZZZZZZZZZZZZZZZZ_0_0_1_0_1_X_X_0
0000000000001100_xxxxxxxxxxxxxxxx_0000000000001010_0_0_1_0_1_X_X_0
0000000000000011_xxxxxxxxxxxxxxxx_0000000000001011_0_0_1_0_0_0_0_0
0000000000000100_xxxxxxxxxxxxxxxx_0001000100100010_0_0_1_0_0_0_1_0
0000000000000101_0011001100110011_xxxxxxxxxxxxxxxx_0_0_1_0_0_0_0_0
0000000000000011_010001000100XXXX_xxxxxxxxxxxxxxxx_0_0_1_0_1_X_X_0
0000000000000100_0101010101010101_xxxxxxxxxxxxxxxx_0_0_1_0_1_X_X_0
0000000000000101_xxxxxxxxxxxxxxxx_0011001100110011_0_0_1_0_1_X_X_0
0000000000000110_xxxxxxxxxxxxxxxx_0100010001001001_0_0_1_0_0_0_0_0
0000000000000111_xxxxxxxxxxxxxxxx_0101010101010101_0_0_1_0_0_0_0_0
0000000000001000_0110011001100110_xxxxxxxxxxxxxxxx_0_0_1_0_0_0_0_0
0000000000000110_0111011101110111_xxxxxxxxxxxxxxxx_0_0_1_0_1_X_X_0
0000000000000111_1000100010001000_xxxxxxxxxxxxxxxx_0_0_1_0_1_X_X_0
0000000000001000_xxxxxxxxxxxxxxxx_0110011001100110_0_0_1_0_1_X_X_0
0000000000000110_xxxxxxxxxxxxxxxx_0111011101110111_0_0_1_0_0_0_1_0
0000000000000111_xxxxxxxxxxxxxxxx_1000100010001000_0_0_1_0_0_1_0_0
0000000000001000_0001XXXX0001XXXX_xxxxxxxxxxxxxxxx_0_0_1_0_0_0_1_0
0000000000000110_XXXX0001XXXX0001_xxxxxxxxxxxxxxxx_0_0_1_0_1_X_X_0
0000000000000111_0001XXXX0001XXXX_xxxxxxxxxxxxxxxx_0_0_1_0_1_X_X_0
0000000000001000_xxxxxxxxxxxxxxxx_0001011000010110_0_0_1_0_1_X_X_0
0000000000001001_xxxxxxxxxxxxxxxx_0111000101110001_0_0_1_0_0_1_1_0 
0000000000001010_xxxxxxxxxxxxxxxx_0001100000011000_0_0_1_0_0_0_0_0
0000000000001011_00100010XXXXXXXX_xxxxxxxxxxxxxxxx_0_0_1_0_0_1_1_0
0000000000000001_XXXXXXXX00110011_xxxxxxxxxxxxxxxx_0_0_1_0_1_X_X_0 
0000000000000010_01000100XXXXXXXX_xxxxxxxxxxxxxxxx_0_0_1_0_1_X_X_0
0000000000000011_xxxxxxxxxxxxxxxx_0111011101110111_0_0_1_0_1_X_X_0
0000000000000100_xxxxxxxxxxxxxxxx_0000000000000010_0_0_1_0_1_X_X_0
0000000000000001_xxxxxxxxxxxxxxxx_0011001100110011_0_0_1_0_0_0_0_0
0000000000000010_xxxxxxxxxxxxxxxx_0100010001001001_0_0_1_0_0_0_0_0
0000000000000011_0001000100010001_xxxxxxxxxxxxxxxx_0_0_1_0_0_0_0_0
0000000000000100_0010001000100010_xxxxxxxxxxxxxxxx_0_0_1_0_0_0_0_0
0000000000000001_0011001100110011_xxxxxxxxxxxxxxxx_0_0_1_0_1_X_X_0
0000000000000010_0100010001000100_xxxxxxxxxxxxxxxx_0_0_1_0_1_X_X_0
0000000000000011_xxxxxxxxxxxxxxxx_0001000100010001_0_0_1_0_1_X_X_0
0000000000000100_xxxxxxxxxxxxxxxx_0010001000100010_0_0_1_0_1_X_X_0
0000000000000101_xxxxxxxxxxxxxxxx_0011001100110011_0_0_1_0_0_0_0_0
0000000000000110_xxxxxxxxxxxxxxxx_0100010001000100_0_X_X_X_X_0_0_1 
0000000000000111_0101010101010101_xxxxxxxxxxxxxxxx_0_X_X_X_X_1_1_1 
0000000000001000_0110011001100110_xxxxxxxxxxxxxxxx_0_X_X_X_X_0_0_1 
0000000000000101_01110111XXXXXXXX_xxxxxxxxxxxxxxxx_0_0_1_0_1_X_X_0
XXXXXXXXXXXXXXXX_XXXXXXXX10001000_xxxxxxxxxxxxxxxx_0_X_X_X_X_X_X_1 
XXXXXXXXXXXXXXXX_xxxxxxxxxxxxxxxx_0101010101010101_0_X_X_X_X_X_X_1 
XXXXXXXXXXXXXXXX_xxxxxxxxxxxxxxxx_0110011001100110_0_X_X_X_X_X_X_1 
XXXXXXXXXXXXXXXX_xxxxxxxxxxxxxxxx_0111011101110001_0_1_X_X_X_X_X_0 
XXXXXXXXXXXXXXXX_xxxxxxxxxxxxxxxx_0100010010001000_1_X_X_X_X_X_X_X 
XXXXXXXXXXXXXXXX_xxxxxxxxxxxxxxxx_0100010010001000_0_X_0_X_X_X_X_0 
XXXXXXXXXXXXXXXX_xxxxxxxxxxxxxxxx_ZZZZZZZZZZZZZZZZ_0_X_X_1_X_X_X_0 
0000000000000101_xxxxxxxxxxxxxxxx_ZZZZZZZZZZZZZZZZ_0_0_1_0_1_X_X_0
XXXXXXXXXXXXXXXX_xxxxxxxxxxxxxxxx_ZZZZZZZZZZZZZZZZ_1_X_X_X_X_X_X_X 
0000000000001000_xxxxxxxxxxxxxxxx_ZZZZZZZZZZZZZZZZ_0_0_1_0_0_0_1_0 
XXXXXXXXXXXXXXXX_xxxxxxxxxxxxxxxx_0101010101010101_1_X_X_X_X_X_X_X 
0000000000000111_xxxxxxxxxxxxxxxx_0101010101010101_0_0_1_0_1_X_X_0
xxxxxxxxxxxxxxxx_XXXXXXXXXXXXXXXX_ZZZZZZZZZZZZZZZZ_1_X_X_X_X_X_X_X
0000000000001000_0000XXXX0000XXXX_ZZZZZZZZZZZZZZZZ_0_0_1_0_1_X_X_0
XXXXXXXXXXXXXXXX_xxxxxxxxxxxxxxxx_0111011101110001_1_X_X_X_X_X_X_X
XXXXXXXXXXXXXXXX_xxxxxxxxxxxxxxxx_0111011101110001_1_X_X_X_X_X_X_X
0000000000000000_xxxxxxxxxxxxxxxx_0111011101110001_0_0_1_0_1_X_X_0
0000000000000001_xxxxxxxxxxxxxxxx_0000100000001000_0_0_1_0_1_X_X_0
0000000000000001_xxxxxxxxxxxxxxxx_0110011001100110_0_0_1_0_0_1_1_0
0000000000000001_xxxxxxxxxxxxxxxx_0001000100010001_0_0_1_0_0_1_1_0 
0000000000000001_0001XXXXXXXXXXXX_xxxxxxxxxxxxxxxx_0_0_1_0_0_0_1_0
0000000000000001_XXXX0010XXXXXXXX_xxxxxxxxxxxxxxxx_0_0_1_0_0_1_0_0
0000000000000001_XXXXXXXX0011XXXX_xxxxxxxxxxxxxxxx_0_0_1_0_1_X_X_0
0000000000000000_XXXXXXXXXXXX0100_xxxxxxxxxxxxxxxx_0_0_1_0_1_X_X_0 
XXXXXXXXXXXXXXXX_xxxxxxxxxxxxxxxx_0001001000110100_0_X_X_X_X_X_X_1
XXXXXXXXXXXXXXXX_xxxxxxxxxxxxxxxx_0110011001100110_0_X_X_X_X_X_X_1
XXXXXXXXXXXXXXXX_xxxxxxxxxxxxxxxx_0001001000110100_0_X_X_X_X_X_X_1
XXXXXXXXXXXXXXXX_xxxxxxxxxxxxxxxx_0010001000100010_0_1_X_X_X_X_X_0
xxxxxxxxxxxxxxxx_xxxxxxxxxxxxxxxx_0011001100110011_0_1_x_x_x_x_x_x
xxxxxxxxxxxxxxxx_xxxxxxxxxxxxxxxx_ZZZZZZZZZZZZZZZZ_0_1_x_x_x_x_x_x												
//Lines =126


